:020000040000FA
:020000000528D1
:040002000034003492
:0800080009008B13CD2022003A
:100010008E112000960197011110111CFE3305303E
:10002000F90020008501870120308400860020002F
:100030000C08F0000D083F398E1809170E188917A3
:10004000F1002000111CFD339601F53097001110CE
:100050004C20F90BF6330530F900FA0B033222007D
:100060008E1120000C08F500700603190532700887
:10007000F60074107220F0000D08F5003F398E185C
:1000800075170E18F51771060319DB337108F600A2
:1000900074147220F1002128F308031908000530B8
:1000A000FA0022008E1520000108031D0832860A7E
:1000B0000608343A031DF833203086001132F3036A
:1000C00023009E1CFE339A0009099E1CFE339A00F1
:1000D0008101860A0608343A031D02322030860068
:1000E0002000080075087606F700771C083276189D
:1000F000023240300132803074188915BD20F71C5F
:1001000006328130F61C413074188915BD20771DE8
:1001100006328230761D423074188915BD20F71DD5
:1001200006328330F61D433074188915BD20771EC2
:1001300006328430761E443074188915BD20F71EAF
:1001400006328530F61E453074188915BD20771F9C
:1001500008328630761F4630741C091474188915CD
:10016000BD20F71F08328730F61F4730741C091076
:1001700074188915BD2075080800F2007308143A38
:1001800003190800F30A72088000840A0408343A4C
:10019000031D08002030840008008B132200083063
:1001A0008E002100FF308C00FF308D0083308E00E8
:1001B000803095002100723099009D0123008C0150
:1001C0008D0120309E000C309B0080309D009F01EF
:1001D00031302000980020008B0120308400850100
:0A01E00003011A00841FFD3308001C
:020000040001F9
:02000E00240EBE
:02001000FF1CD3
:00000001FF
