:08000000803102288731F62F40
:100CF2001630210097000800503021009900980119
:100D02000800640080010131890B832E0034873191
:100D1200312786318731782780310228F000200080
:100D2200111E902E700823009A000800F10071082D
:100D320086318F268631710986318F26640008003C
:100D4200083023009F0090309D0024309E000C301C
:100D52009B009C0108008631F626863186317D266D
:100D620086318631792686318631A1260800F10145
:100D720002307102031808005230F0002A30890B49
:100D8200C02EF00BC02E64000130F0007008F10795
:100D9200B92E22008E111130F0003A30890BCF2E7D
:100DA200F00BCF2E003222008E151130F0003A30B7
:100DB200890BD92EF00BD92E003264000800F20103
:100DC20006307202031808008631CA268631A33023
:100DD200F1005530890BEB2EF10BEB2E0000640075
:100DE2000130F1007108F207E12E220090018C011E
:100DF2008D018E01083021009000FF308C00FF3001
:100E02008D00B7308E0023008D018C0124009001EB
:100E12008D012100951322009D010800F300F401C9
:100E22007408031D08008631CA2687317308803E84
:100E32008631972687313130F200B230890B1F2F6D
:100E4200F20B1F2F00328631CA2687317308403ECB
:100E52008631972687310130F2007208F407112F8C
:100E62008631AC2687318631E0268731F901103090
:100E72007902031808007908203E86008701810163
:100E8200810A8631CA26873179088731532787310B
:100E9200FA300032890B4A2F64000130F8007808DA
:100EA200F907382FF700770887319E278731F50039
:100EB2007508F6007708203E86008701010876064D
:100EC2000319762F7608F5007708203E8600870101
:100ED200750881007608031D762F770887310F2762
:100EE20087318631B8260130080000300800F90148
:100EF200FA0110307A020318922F7A0887315327A9
:100F02008731003A031DF901FA300032890B862F2E
:100F120064000130F8007808FA0710307A02031CE6
:100F22007E2F0130F8007808F90720307906031D7A
:100F3200792F8631CA268731782FF4000630740261
:100F42000318B72F0130F000740AA82FF035890B6F
:100F5200A72F7008F1007108F20020000C0872053A
:100F62000319B52F0130080000300800063074065E
:100F7200031DC02F20000C0D0C0D01390800073095
:100F82007406031DCA2F20000C0E890C890C01392E
:100F920008000E3074020318E42F0130F0007408C8
:100FA200F83E890AD52FF035890BD42F7008F1004D
:100FB2007108F30020000D0873050319E22F0130B8
:100FC2000800003008000E307406031DEC2F2000CC
:100FD2000E0C013908000F307406031DF42F200097
:100FE2000E0801390800003008002030840000306B
:0E0FF200850010308631822620008631882E40
:020000040001F9
:04000E00F4CFFFFE2E
:00000001FF
